:100000000C942A000C9447000C9447000C94470071
:100010000C9447000C9447000C9447000C94470044
:100020000C9447000C9447000C9447000C940D0767
:100030000C9447000C9447000C9447000C94470024
:100040000C9447000C9447000C9447000C94470014
:100050000C94470011241FBECFE5D8E0DEBFCDBF12
:1000600010E0A0E6B0E0E4EBF9E402C005900D92E8
:10007000A638B107D9F710E0A6E8B0E001C01D929C
:10008000A439B107E1F70E949F230C94D8240C9463
:100090000000EF92FF920F931F937B018C0120E0F1
:1000A00030E040E05FE40E94490388238CF0C801FF
:1000B000B70120E030E040E05FE40E94C1010E940F
:1000C000A9039B01AC01205030404040504806C07D
:1000D000C801B7010E94A9039B01AC01B901CA0183
:1000E0001F910F91FF90EF900895A0E0B0E0EBE733
:1000F000F0E00C94A124DC012B01FA019C919230D8
:1001000008F439C1EB018881823008F433C194309E
:1001100069F4843009F02FC111969C91119789815F
:10012000981709F428C1ADE6B0E025C1843009F480
:1001300021C18230A9F4923009F01DC19A01AD01AC
:1001400088E0EA010990AE01E90109929E0181501F
:10015000C1F7E201898111969C918923818308C1AD
:10016000923009F407C112962D903C901397EB0141
:100170008A819B811496AD90BD90CD90DC901797AD
:10018000EC80FD800E811F819101281B390BB90184
:1001900037FF04C066277727621B730B6032710537
:1001A0000CF061C0121613066CF537014801062EDB
:1001B00004C096948794779467940A94D2F721E0C8
:1001C00030E040E050E004C0220F331F441F551FB1
:1001D0006A95D2F721503040404050402E213F21B7
:1001E00040235123211531054105510521F021E01E
:1001F00030E040E050E079018A01E628F72808293C
:1002000019293CC0232BD1F1260E371E350146019A
:10021000062E04C096948794779467940A94D2F734
:1002200021E030E040E050E004C0220F331F441FC3
:10023000551F6A95D2F721503040404050402A2146
:100240003B214C215D21211531054105510521F04E
:1002500021E030E040E050E059016A01A628B728CB
:10026000C828D9280BC0821593052CF01C01AA249C
:10027000BB24650103C0EE24FF24870111969C91E5
:10028000D20111968C91981709F445C0992339F041
:10029000A80197012A193B094C095D0906C0A6016E
:1002A00095012E193F09400B510B57FD08C01182D3
:1002B0003382228224833583468357831DC081E0A5
:1002C00081833382228288279927DC01821B930B4A
:1002D000A40BB50B84839583A683B7830DC0220F2F
:1002E000331F441F551F24833583468357838281E0
:1002F000938101979383828324813581468157813D
:10030000DA01C9010197A109B1098F5F9F4FAF4F72
:10031000BF4328F30BC0918333822282EA0CFB1C7B
:100320000C1D1D1DE482F5820683178383E0808304
:10033000248135814681578157FF1AC0C901AA27F8
:1003400097FDA095BA2F81709070A070B0705695EF
:10035000479537952795822B932BA42BB52B848318
:100360009583A683B7838281938101969383828349
:10037000DF0101C0D201CD01CDB7DEB7E2E10C94BF
:10038000BD24A0E2B0E0E7ECF1E00C94AD24698379
:100390007A838B839C832D833E834F835887E9E048
:1003A000EE2EF12CEC0EFD1ECE010196B7010E943F
:1003B000D2048E010F5E1F4FCE010596B8010E9438
:1003C000D2048A8991E089278A8BC701B801AE01DE
:1003D000475E5F4F0E9475000E94FD03A096E6E015
:1003E0000C94C924A0E2B0E0E8EFF1E00C94AD2455
:1003F00069837A838B839C832D833E834F835887C5
:10040000F9E0EF2EF12CEC0EFD1ECE010196B701A6
:100410000E94D2048E010F5E1F4FCE010596B801D7
:100420000E94D204C701B801AE01475E5F4F0E942F
:1004300075000E94FD03A096E6E00C94C924A0E29A
:10044000B0E0E5E2F2E00C94A12469837A838B8327
:100450009C832D833E834F835887CE010196BE0136
:10046000675F7F4F0E94D204CE010596BE016F5E8A
:100470007F4F0E94D2049985923088F0898982301A
:10048000C8F0943019F4823051F404C0843029F457
:10049000923081F48DE690E0C6C0923049F420E0BD
:1004A0009A858A89981321E02A87CE010996BBC0D4
:1004B000823049F420E09A858A89981321E02A8BBA
:1004C000CE014196B0C02D843E844F8458886D88FB
:1004D0007E888F88988CEE24FF248701AA24BB2471
:1004E000650140E050E060E070E0E0E0F0E0C10174
:1004F00081709070892BE9F0E60CF71C081D191D1E
:100500009A01AB012A0D3B1D4C1D5D1D80E090E062
:10051000A0E0B0E0E614F7040805190520F481E036
:1005200090E0A0E0B0E0BA01A901480F591F6A1F8E
:100530007B1FAA0CBB1CCC1CDD1C97FE08C081E0F5
:1005400090E0A0E0B0E0A82AB92ACA2ADB2A3196B6
:10055000E032F10549F0660C771C881C991C569412
:10056000479437942794C3CFFA85EA892B893C892D
:100570008B859C85280F391F2E5F3F4F17C0CA01FE
:1005800081709070892B61F016950795F794E79428
:1005900080E090E0A0E0B0E8E82AF92A0A2B1B2BC3
:1005A00076956795579547952F5F3F4F77FDE7CF36
:1005B0000CC0440F551F661F771F17FD4160EE0CDE
:1005C000FF1C001F111F21503040403090E05907A0
:1005D00090E0690790E4790760F32B8F3C8FDB0193
:1005E000CA018F779070A070B07080349105A1051A
:1005F000B10561F447FD0AC0E114F10401051105DC
:1006000029F0405C5F4F6F4F7F4F40781A8EFE1786
:1006100011F081E08A8F4D8F5E8F6F8F78A383E01A
:10062000898FCE0149960E94FD03A096E2E10C94C9
:10063000BD24A8E1B0E0EFE1F3E00C94AD246983C0
:100640007A838B839C832D833E834F83588789E0F5
:10065000E82EF12CEC0EFD1ECE010196B7010E9492
:10066000D2048E010F5E1F4FCE010596B8010E9485
:10067000D2048985823040F08989823028F0C70110
:10068000B8010E944A0501C08FEF6896E6E00C941D
:10069000C924A8E1B0E0EFE4F3E00C94AD24698351
:1006A0007A838B839C832D833E834F83588789E095
:1006B000E82EF12CEC0EFD1ECE010196B7010E9432
:1006C000D2048E010F5E1F4FCE010596B8010E9425
:1006D000D2048985823040F08989823028F0C701B0
:1006E000B8010E944A0501C08FEF6896E6E00C94BD
:1006F000C924A8E1B0E0EFE7F3E00C94AD246983EE
:100700007A838B839C832D833E834F83588789E034
:10071000E82EF12CEC0EFD1ECE010196B7010E94D1
:10072000D2048E010F5E1F4FCE010596B8010E94C4
:10073000D2048985823040F08989823028F0C7014F
:10074000B8010E944A0501C081E06896E6E00C9479
:10075000C924ACE0B0E0EFEAF3E00C94B124698383
:100760007A838B839C83CE010196BE016B5F7F4FA2
:100770000E94D2048D81823061F1823050F1843048
:1007800021F48E81882351F12EC02F81388537FDC9
:1007900020C06E812F3131051CF06623F9F023C093
:1007A0008EE190E0821B930B29853A854B855C8511
:1007B00004C056954795379527958A95D2F76623B5
:1007C000B1F050954095309521953F4F4F4F5F4F79
:1007D0000EC020E030E040E050E009C02FEF3FEFD6
:1007E0004FEF5FE704C020E030E040E050E8B9019F
:1007F000CA012C96E2E00C94CD24DF92EF92FF9296
:100800000F931F93FC01E480F58006811781D1804E
:100810008081823048F480E090E0A0E1B0E0E82AF6
:10082000F92A0A2B1B2BA5C0843009F49FC0823003
:1008300021F4EE24FF24870105C0E114F104010531
:10084000110519F4E0E0F0E096C0628173819FEF3A
:10085000623879070CF05BC022E83FEF261B370BAC
:100860002A3131052CF020E030E040E050E02AC091
:10087000B801A701022E04C0769567955795479554
:100880000A94D2F781E090E0A0E0B0E004C0880FC5
:10089000991FAA1FBB1F2A95D2F70197A109B10979
:1008A0008E219F21A023B1230097A105B10521F03E
:1008B00081E090E0A0E0B0E09A01AB01282B392B59
:1008C0004A2B5B2BDA01C9018F779070A070B07052
:1008D00080349105A105B10539F427FF09C0205CDA
:1008E0003F4F4F4F5F4F04C0215C3F4F4F4F5F4F13
:1008F000E0E0F0E02030A0E03A07A0E04A07A0E402
:100900005A0710F0E1E0F0E079018A0127C0603871
:10091000710564F5FB01E158FF4FD801C7018F77DE
:100920009070A070B07080349105A105B10539F4C4
:10093000E7FE0DC080E490E0A0E0B0E004C08FE3EB
:1009400090E0A0E0B0E0E80EF91E0A1F1B1F17FFA1
:1009500005C016950795F794E794319687E01695AC
:100960000795F794E7948A95D1F705C0EE24FF2404
:100970008701EFEFF0E06E2F679566276795902F60
:100980009F77D794DD24D7948E2F8695492F462BB9
:10099000582F5D29B701CA011F910F91FF90EF9069
:1009A000DF900895FC01DB01408151812281622F9B
:1009B0006F7770E0221F2227221F9381892F880FD3
:1009C000822B282F30E0991F9927991F11969C930D
:1009D000119721153105A9F54115510561057105DD
:1009E00011F482E037C082E89FEF13969C938E93B8
:1009F00012979A01AB0167E0220F331F441F551F66
:100A00006A95D1F783E08C930DC0220F331F441FEA
:100A1000551F12968D919C911397019713969C9355
:100A20008E931297203080E0380780E0480780E4FA
:100A3000580758F314962D933D934D935C93179755
:100A400008952F3F310579F4411551056105710570
:100A500019F484E08C93089564FF03C081E08C93C3
:100A600012C01C9210C02F57304013963C932E9307
:100A7000129783E08C9387E0440F551F661F771F02
:100A80008A95D1F7706414964D935D936D937C9322
:100A9000179708951F93DC01FB019C91923008F495
:100AA00047C08081823008F443C0943051F41196DD
:100AB0001C91843099F58181682F70E0611B710968
:100AC0003FC0843021F0923031F48230B9F181811D
:100AD000882389F12DC011961C9111978230F1F075
:100AE00081811817D9F412962D913C911397828128
:100AF00093818217930794F028173907BCF0149656
:100B00008D919D910D90BC91A02D248135814681C0
:100B10005781281739074A075B0718F4112341F05A
:100B20000AC082179307A407B50740F4112319F0F0
:100B300061E070E005C06FEF7FEF02C060E070E041
:100B4000CB011F910895DF93CF930F92CDB7DEB7FE
:100B500088E260E00E941C0989E261E00E941C09B1
:100B600080E88983AAE2B0E0EAE2F0E080818B7F4E
:100B70008C9389818460898389818260898389815A
:100B80008F7B898389818F7E898389818F7D89830A
:100B90008981877F8983E9E2F0E087E68083E0E46A
:100BA000F0E089818083AAE2B0E0EAE2F0E08081AF
:100BB00080618C93AAE2B0E0EAE2F0E08081886094
:100BC0008C930F90CF91DF910895DF93CF9300D056
:100BD00000D00F92CDB7DEB78D83ECE2F0E08D81CF
:100BE000808319821A821B821C8213C089819A8198
:100BF000AB81BC810196A11DB11D89839A83AB8312
:100C0000BC83EBE2F0E08081881F8827881F813059
:100C100061F089819A81AB81BC81803824E8920798
:100C20002EE1A20720E0B20708F30F900F900F907B
:100C30000F900F90CF91DF910895DF93CF9300D065
:100C400000D0CDB7DEB719821A821B821C8213C076
:100C500089819A81AB81BC810196A11DB11D8983D7
:100C60009A83AB83BC83EBE2F0E08081881F882706
:100C7000881F813061F089819A81AB81BC81803885
:100C800024E892072EE1A20720E0B20708F3ECE285
:100C9000F0E080810F900F900F900F90CF91DF9137
:100CA0000895DF93CF93CDB7DEB7A3E5B0E0E3E5DA
:100CB000F0E080818F7B8C93A3E5B0E0E3E5F0E08A
:100CC0008081877F8C93A3E5B0E0E3E5F0E080814D
:100CD00081608C93A3E5B0E0E3E5F0E080818D7F57
:100CE0008C93A3E5B0E0E3E5F0E0808184608C9331
:100CF000AFE5B0E0EFE5F0E0808180688C93A9E596
:100D0000B0E0E9E5F0E0808181608C93CF91DF91E4
:100D10000895DF93CF93CDB7DEB72C970FB6F89435
:100D2000DEBF0FBECDBF69877A878B879C8780E443
:100D300090E0A0E0B0E08D839E83AF83B887898583
:100D40009A85AB85BC8528EE33E040E050E0BC01DD
:100D5000CD010E943924DC01CB012D813E814F81E0
:100D60005885BC01CD010E946424DA01C901898340
:100D70009A83AB83BC8389819A81AB81BC81892FA3
:100D80009A2FAB2FBB278093860090938700A09368
:100D90008800B09389002C960FB6F894DEBF0FBE82
:100DA000CDBFCF91DF910895DF93CF9300D000D0D6
:100DB0000F92CDB7DEB789837B836A838981282F21
:100DC00030E03D832C838C819D818130910581F0C1
:100DD0002C813D812230310591F08C819D810097DD
:100DE000A1F48A819B8190939300809392000DC01F
:100DF0008A819B81909391008093900006C08A81A4
:100E00009B8190938F0080938E000F900F900F9096
:100E10000F900F90CF91DF9108951F920F920FB610
:100E20000F9211242F933F934F935F936F937F9370
:100E30008F939F93AF93BF93EF93FF93DF93CF93E2
:100E4000CDB7DEB780918A0090918B00A0918C0085
:100E5000B0918D000196A11DB11D80938A009093E1
:100E60008B00A0938C00B0938D0020918A0030916C
:100E70008B0040918C0050918D0080918600909164
:100E80008700A0918800B0918900281739074A0788
:100E90005B0771F482E00E94D61382E00E94041482
:100EA00010928A0010928B0010928C0010928D008C
:100EB000CF91DF91FF91EF91BF91AF919F918F9172
:100EC0007F916F915F914F913F912F910F900FBE46
:100ED0000F901F901895DF93CF93CDB7DEB7ADE29B
:100EE000B0E0EDE2F0E0808180618C93ADE2B0E0B3
:100EF000EDE2F0E0808181608C93ADE2B0E0EDE264
:100F0000F0E0808182608C9388E161E00E941C099E
:100F100089E161E00E941C098AE160E00E941C09ED
:100F20008BE161E00E941C09ADE2B0E0EDE2F0E08F
:100F3000808180628C93ADE2B0E0EDE2F0E08081F0
:100F400080648C93CF91DF910895DF93CF9300D08D
:100F500000D00F92CDB7DEB78D83EFE2F0E08D8148
:100F6000808319821A821B821C8213C089819A8114
:100F7000AB81BC810196A11DB11D89839A83AB838E
:100F8000BC83EEE2F0E08081881F8827881F8130D3
:100F900061F089819A81AB81BC81803824E8920715
:100FA0002EE1A20720E0B20708F3EFE2F0E0808133
:100FB0000F900F900F900F900F90CF91DF910895A9
:100FC000DF93CF93CDB7DEB7E0E2F0E08CE0808333
:100FD000A6E5B0E0E6E5F0E0808184608C93CF91F7
:100FE000DF910895DF93CF93CDB7DEB7A6E5B0E0EC
:100FF000E6E5F0E0808180628C93A6E5B0E0E6E56E
:10100000F0E0808180688C93E6E5F0E080818823C1
:10101000DCF7E1E2F0E08081882F90E0887F90703B
:1010200088309105B1F7CF91DF910895DF93CF9389
:10103000CDB7DEB7A6E5B0E0E6E5F0E080818061FF
:101040008C93CF91DF910895DF93CF93CDB7DEB727
:10105000A6E5B0E0E6E5F0E0808180628C93A6E54D
:10106000B0E0E6E5F0E0808180688C93E6E5F0E0B2
:1010700080818823DCF7E1E2F0E08081882F90E036
:10108000887F907080319105B1F7CF91DF910895FD
:10109000DF93CF930F92CDB7DEB78983E3E2F0E021
:1010A0008981880F8083A6E5B0E0E6E5F0E08081E5
:1010B00080688C93E6E5F0E080818823DCF7E1E24C
:1010C000F0E08081882F90E0887F907088319105D2
:1010D000B1F70F90CF91DF910895DF93CF930F92E7
:1010E000CDB7DEB78983E3E2F0E08981882F90E015
:1010F000880F991F81608083A6E5B0E0E6E5F0E007
:10110000808180688C93E6E5F0E080818823DCF7BD
:10111000E1E2F0E08081882F90E0887F9070803459
:101120009105B1F70F90CF91DF910895DF93CF93A1
:101130000F92CDB7DEB78983E3E2F0E08981808347
:10114000A6E5B0E0E6E5F0E0808180688C93E6E516
:10115000F0E080818823DCF7E1E2F0E08081882FF5
:1011600090E0887F907088329105B1F70F90CF9111
:10117000DF910895DF93CF930F92CDB7DEB7E3E20F
:10118000F0E080818983A6E5B0E0E6E5F0E08081CB
:1011900080688C93E6E5F0E080818823DCF7E1E26B
:1011A000F0E08081882F90E0887F907080359105F5
:1011B000B1F789810F90CF91DF910895DF93CF939D
:1011C00000D00F92CDB7DEB789838981282F30E018
:1011D0003B832A838A819B818130910589F02A8112
:1011E0003B8122303105A1F08A819B810097B9F4BF
:1011F000ABE5B0E0EBE5F0E0808180648C930FC05C
:10120000ABE5B0E0EBE5F0E0808180688C9307C04F
:10121000ABE5B0E0EBE5F0E0808180628C93AFE578
:10122000B0E0EFE5F0E0808180688C930F900F9044
:101230000F90CF91DF910895DF93CF93CDB7DEB7B5
:101240002A970FB6F894DEBF0FBECDBF8B836C8399
:101250008B819AE0692F0E945824892F8A838B8181
:101260009AE0692F0E94582489838C81282F30E0CE
:101270003A87298789859A85009739F029853A85A3
:101280002130310509F476C0E4C08981282F30E08F
:1012900038872F838F8198858230910561F12F8166
:1012A00038852330310534F48F819885813091055C
:1012B00069F0CFC02F8138852330310589F18F81C6
:1012C00098858430910509F440C0C3C0AAE3B0E01A
:1012D000EAE3F0E08081482F8A81282F30E081E026
:1012E00090E0022E02C0880F991F0A94E2F78095C1
:1012F00084238C93AEC0A7E3B0E0E7E3F0E0808105
:10130000482F8A81282F30E081E090E0022E02C031
:10131000880F991F0A94E2F7809584238C9399C0D3
:10132000A4E3B0E0E4E3F0E08081482F8A81282F35
:1013300030E081E090E0022E02C0880F991F0A94ED
:10134000E2F7809584238C9384C0A1E3B0E0E1E3CD
:10135000F0E08081482F8A81282F30E081E090E002
:10136000022E02C0880F991F0A94E2F78095842309
:101370008C936FC08981282F30E03E832D838D812F
:101380009E818230910551F12D813E8123303105BE
:1013900034F48D819E818130910561F05AC02D8198
:1013A0003E812330310571F18D819E81843091051C
:1013B000E9F14FC0AAE3B0E0EAE3F0E08081482F12
:1013C0008A81282F30E081E090E0022E02C0880F51
:1013D000991F0A94E2F7842B8C933BC0A7E3B0E0FB
:1013E000E7E3F0E08081482F8A81282F30E081E018
:1013F00090E0022E02C0880F991F0A94E2F7842B16
:101400008C9327C0A4E3B0E0E4E3F0E08081482FB0
:101410008A81282F30E081E090E0022E02C0880F00
:10142000991F0A94E2F7842B8C9313C0A1E3B0E0D8
:10143000E1E3F0E08081482F8A81282F30E081E0CD
:1014400090E0022E02C0880F991F0A94E2F7842BC5
:101450008C932A960FB6F894DEBF0FBECDBFCF9106
:10146000DF910895DF93CF93CDB7DEB72A970FB6FC
:10147000F894DEBF0FBECDBF8B836C838B819AE067
:10148000692F0E945824892F8A838B819AE0692FC3
:101490000E94582489838C81282F30E03A8729873D
:1014A00089859A85009739F029853A85213031055B
:1014B00009F476C0E4C08981282F30E038872F8373
:1014C0008F8198858230910561F12F813885233095
:1014D000310534F48F8198858130910569F0CFC052
:1014E0002F8138852330310589F18F8198858430AB
:1014F000910509F440C0C3C0ABE3B0E0EBE3F0E01A
:101500008081482F8A81282F30E081E090E0022EF0
:1015100002C0880F991F0A94E2F7809584238C9368
:10152000AEC0A8E3B0E0E8E3F0E08081482F8A8114
:10153000282F30E081E090E0022E02C0880F991F32
:101540000A94E2F7809584238C9399C0A5E3B0E0D8
:10155000E5E3F0E08081482F8A81282F30E081E0A8
:1015600090E0022E02C0880F991F0A94E2F780953E
:1015700084238C9384C0A2E3B0E0E2E3F0E08081B6
:10158000482F8A81282F30E081E090E0022E02C0AF
:10159000880F991F0A94E2F7809584238C936FC07B
:1015A0008981282F30E03E832D838D819E8182307A
:1015B000910551F12D813E812330310534F48D8127
:1015C0009E818130910561F05AC02D813E8123308A
:1015D000310571F18D819E8184309105E9F14FC013
:1015E000ABE3B0E0EBE3F0E08081482F8A81282F65
:1015F00030E081E090E0022E02C0880F991F0A942B
:10160000E2F7842B8C933BC0A8E3B0E0E8E3F0E082
:101610008081482F8A81282F30E081E090E0022EDF
:1016200002C0880F991F0A94E2F7842B8C9327C07D
:10163000A5E3B0E0E5E3F0E08081482F8A81282F20
:1016400030E081E090E0022E02C0880F991F0A94DA
:10165000E2F7842B8C9313C0A2E3B0E0E2E3F0E066
:101660008081482F8A81282F30E081E090E0022E8F
:1016700002C0880F991F0A94E2F7842B8C932A9654
:101680000FB6F894DEBF0FBECDBFCF91DF910895A6
:10169000DF93CF93CDB7DEB72A970FB6F894DEBFAE
:1016A0000FBECDBF8B836C838B819AE0692F0E9424
:1016B0005824892F8A838B819AE0692F0E945824AD
:1016C00089838C81282F30E03A87298789859A85FC
:1016D000009739F029853A852130310509F476C023
:1016E000E4C08981282F30E038872F838F81988547
:1016F0008230910561F12F8138852330310534F432
:101700008F8198858130910569F0CFC02F81388510
:101710002330310589F18F8198858430910509F452
:1017200040C0C3C0ABE3B0E0EBE3F0E08081482F02
:101730008A81282F30E081E090E0022E02C0880FDD
:10174000991F0A94E2F7809584238C93AEC0A8E396
:10175000B0E0E8E3F0E08081482F8A81282F30E074
:1017600081E090E0022E02C0880F991F0A94E2F7F0
:10177000809584238C9399C0A5E3B0E0E5E3F0E085
:101780008081482F8A81282F30E081E090E0022E6E
:1017900002C0880F991F0A94E2F7809584238C93E6
:1017A00084C0A2E3B0E0E2E3F0E08081482F8A81C8
:1017B000282F30E081E090E0022E02C0880F991FB0
:1017C0000A94E2F7809584238C936FC08981282F37
:1017D00030E03E832D838D819E818230910551F1D1
:1017E0002D813E812330310534F48D819E818130FD
:1017F000910561F05AC02D813E812330310571F190
:101800008D819E8184309105E9F14FC0ABE3B0E05A
:10181000EBE3F0E08081482F8A81282F30E081E0DF
:1018200090E0022E02C0880F991F0A94E2F7842BE1
:101830008C933BC0A8E3B0E0E8E3F0E08081482F60
:101840008A81282F30E081E090E0022E02C0880FCC
:10185000991F0A94E2F7842B8C9327C0A5E3B0E08C
:10186000E5E3F0E08081482F8A81282F30E081E095
:1018700090E0022E02C0880F991F0A94E2F7842B91
:101880008C9313C0A2E3B0E0E2E3F0E08081482F44
:101890008A81282F30E081E090E0022E02C0880F7C
:1018A000991F0A94E2F7842B8C932A960FB6F8942A
:1018B000DEBF0FBECDBFCF91DF910895DF93CF93F1
:1018C00000D000D00F92CDB7DEB78B838B819AE02A
:1018D000692F0E945824892F8A838B819AE0692F6F
:1018E0000E94582489838981282F30E03D832C83EE
:1018F0008C819D818230910551F12C813D81233075
:10190000310534F48C819D818130910561F05AC09C
:101910002C813D812330310571F18C819D81843092
:101920009105E9F14FC0ABE3B0E0EBE3F0E080817B
:10193000482F8A81282F30E081E090E0022E02C0FB
:10194000880F991F0A94E2F784278C933BC0A8E381
:10195000B0E0E8E3F0E08081482F8A81282F30E072
:1019600081E090E0022E02C0880F991F0A94E2F7EE
:1019700084278C9327C0A5E3B0E0E5E3F0E0808105
:10198000482F8A81282F30E081E090E0022E02C0AB
:10199000880F991F0A94E2F784278C9313C0A2E35F
:1019A000B0E0E2E3F0E08081482F8A81282F30E028
:1019B00081E090E0022E02C0880F991F0A94E2F79E
:1019C00084278C930F900F900F900F900F90CF91D2
:1019D000DF910895DF93CF9300D000D000D0CDB732
:1019E000DEB78C838C819AE0692F0E945824892F5E
:1019F0008B838C819AE0692F0E9458248A831982F4
:101A00008A81282F30E03E832D834D815E814230D4
:101A1000510541F18D819E818330910534F42D81F2
:101A20003E812130310561F052C04D815E814330ED
:101A3000510551F18D819E8184309105B9F147C0E6
:101A4000E9E3F0E08081282F30E08B81882F90E05F
:101A5000A90102C0559547958A95E2F7CA018170A0
:101A6000898335C0E6E3F0E08081282F30E08B8168
:101A7000882F90E0A90102C0559547958A95E2F715
:101A8000CA018170898323C0E3E3F0E08081282FBD
:101A900030E08B81882F90E0A90102C055954795D1
:101AA0008A95E2F7CA018170898311C0E0E3F0E012
:101AB0008081282F30E08B81882F90E0A90102C01F
:101AC000559547958A95E2F7CA0181708983898186
:101AD00026960FB6F894DEBF0FBECDBFCF91DF9133
:101AE0000895DF93CF93CDB7DEB7A7E2B0E0E7E28A
:101AF000F0E0808180648C93A7E2B0E0E7E2F0E060
:101B000080818F778C93A7E2B0E0E7E2F0E08081FC
:101B10008F7D8C93A6E2B0E0E6E2F0E08081816008
:101B20008C93A6E2B0E0E6E2F0E0808182608C93E4
:101B3000A6E2B0E0E6E2F0E0808184608C93A6E269
:101B4000B0E0E6E2F0E0808180628C93A6E2B0E053
:101B5000E6E2F0E0808180688C93CF91DF91089578
:101B6000DF93CF9300D00F92CDB7DEB78983898101
:101B7000282F30E03B832A838A819B818330910523
:101B800009F49BC02A813B81243031058CF48A8181
:101B90009B818130910509F448C02A813B81223024
:101BA00031050CF066C08A819B810097D1F038C165
:101BB0002A813B812530310509F4C7C08A819B8188
:101BC000853091050CF49DC02A813B81263031057A
:101BD00009F4DFC08A819B818730910509F4FDC03B
:101BE0001FC1A7E2B0E0E7E2F0E080818E7F8C9336
:101BF000A7E2B0E0E7E2F0E080818D7F8C93A7E27E
:101C0000B0E0E7E2F0E080818B7F8C93A7E2B0E068
:101C1000E7E2F0E08081877F8C93A7E2B0E0E7E223
:101C2000F0E080818F7E8C93FBC0A7E2B0E0E7E21A
:101C3000F0E0808181608C93A7E2B0E0E7E2F0E021
:101C400080818D7F8C93A7E2B0E0E7E2F0E08081B5
:101C50008B7F8C93A7E2B0E0E7E2F0E08081877FA2
:101C60008C93A7E2B0E0E7E2F0E080818F7E8C9376
:101C7000D7C0A7E2B0E0E7E2F0E080818E7F8C93EE
:101C8000A7E2B0E0E7E2F0E0808182608C93A7E217
:101C9000B0E0E7E2F0E080818B7F8C93A7E2B0E0D8
:101CA000E7E2F0E08081877F8C93A7E2B0E0E7E293
:101CB000F0E080818F7E8C93B3C0A7E2B0E0E7E2D2
:101CC000F0E0808181608C93A7E2B0E0E7E2F0E091
:101CD000808182608C93A7E2B0E0E7E2F0E080814F
:101CE0008B7F8C93A7E2B0E0E7E2F0E08081877F12
:101CF0008C93A7E2B0E0E7E2F0E080818F7E8C93E6
:101D00008FC0A7E2B0E0E7E2F0E080818E7F8C93A5
:101D1000A7E2B0E0E7E2F0E080818D7F8C93A7E25C
:101D2000B0E0E7E2F0E0808184608C93A7E2B0E06D
:101D3000E7E2F0E08081877F8C93A7E2B0E0E7E202
:101D4000F0E080818F7E8C936BC0A7E2B0E0E7E289
:101D5000F0E0808181608C93A7E2B0E0E7E2F0E000
:101D600080818D7F8C93A7E2B0E0E7E2F0E0808194
:101D700084608C93A7E2B0E0E7E2F0E08081877FA7
:101D80008C93A7E2B0E0E7E2F0E080818F7E8C9355
:101D900047C0A7E2B0E0E7E2F0E080818E7F8C935D
:101DA000A7E2B0E0E7E2F0E0808182608C93A7E2F6
:101DB000B0E0E7E2F0E0808184608C93A7E2B0E0DD
:101DC000E7E2F0E08081877F8C93A7E2B0E0E7E272
:101DD000F0E080818F7E8C9323C0A7E2B0E0E7E241
:101DE000F0E0808181608C93A7E2B0E0E7E2F0E070
:101DF000808182608C93A7E2B0E0E7E2F0E080812E
:101E000084608C93A7E2B0E0E7E2F0E08081877F16
:101E10008C93A7E2B0E0E7E2F0E080818F7E8C93C4
:101E2000A6E2B0E0E6E2F0E0808180648C93E6E236
:101E3000F0E0808182958F70882F90E081709070A3
:101E40000097A9F3E4E2F0E0808191810F900F9078
:101E50000F90CF91DF910895DF93CF93CDB7DEB789
:101E60008EE061E00E941C098FE061E00E941C0985
:101E700080E161E00E941C0981E161E00E941C098F
:101E800086E161E00E941C0985E161E00E941C0975
:101E9000CF91DF910895DF93CF9300D00F92CDB70C
:101EA000DEB789838981282F30E03B832A838A81AA
:101EB0009B818430910509F48BC02A813B812530B8
:101EC0003105ECF48A819B818130910509F44DC084
:101ED0002A813B81223031052CF48A819B81009735
:101EE00099F1DBC02A813B812230310509F44EC0D3
:101EF0008A819B818330910509F459C0CEC02A8123
:101F00003B812730310509F496C08A819B81883056
:101F100091056CF42A813B812530310509F469C0B3
:101F20008A819B818630910509F474C0B6C02A81EC
:101F30003B812830310509F48FC08A819B8189302B
:101F4000910509F49AC0A9C08EE060E00E94320AAF
:101F50008FE060E00E94320A80E160E00E94320A75
:101F600081E160E00E94320A98C08EE061E00E9448
:101F7000320A8FE060E00E94320A80E160E00E9455
:101F8000320A81E160E00E94320A87C08EE060E0A0
:101F90000E94320A8FE061E00E94320A80E160E034
:101FA0000E94320A81E160E00E94320A76C08EE02F
:101FB00061E00E94320A8FE061E00E94320A80E113
:101FC00060E00E94320A81E160E00E94320A65C04E
:101FD0008EE060E00E94320A8FE060E00E94320AE8
:101FE00080E161E00E94320A81E160E00E94320AF1
:101FF00054C08EE061E00E94320A8FE060E00E94EF
:10200000320A80E161E00E94320A81E160E00E94D0
:10201000320A43C08EE060E00E94320A8FE061E045
:102020000E94320A80E161E00E94320A81E160E0B0
:102030000E94320A32C08EE061E00E94320A8FE0D4
:1020400061E00E94320A80E161E00E94320A81E18F
:1020500060E00E94320A21C08EE060E00E94320AF5
:102060008FE060E00E94320A80E160E00E94320A64
:1020700081E161E00E94320A10C08EE061E00E94BE
:10208000320A8FE060E00E94320A80E160E00E9444
:10209000320A81E161E00E94320A0F900F900F90A6
:1020A000CF91DF910895DF93CF93CDB7DEB7A3979C
:1020B0000FB6F894DEBF0FBECDBF8BA31F8E18A244
:1020C00019A21AA212C18BA19AE0692F0E9458246A
:1020D000892F8E8F8BA19AE0692F0E9458248D8FB3
:1020E0008E8D0E944B0F85E161E00E94320A80E0F4
:1020F00090E0A0E8BFE3898F9A8FAB8FBC8F698D8A
:102100007A8D8B8D9C8D20E030E04AE755E40E946B
:102110001F02DC01CB018D8B9E8BAF8BB88F6D893D
:102120007E898F89988D20E030E040E85FE30E944F
:10213000790388232CF481E090E09C8B8B8B3FC04B
:102140006D897E898F89988D20E03FEF4FE757E4B6
:102150000E94190318164CF5698D7A8D8B8D9C8D14
:1021600020E030E040E251E40E941F02DC01CB019C
:10217000BC01CD010E944900DC01CB019C8B8B8B03
:102180000FC080E991E09A8B898B89899A890197A0
:10219000F1F79A8B898B8B899C8901979C8B8B8B10
:1021A0008B899C89009769F714C06D897E898F8916
:1021B000988D0E944900DC01CB019C8B8B8B8B8915
:1021C0009C89988B8F878F8598890197F1F7988BD9
:1021D0008F8785E160E00E94320A8D8D0E944B0F4F
:1021E00086E161E00E94320A80E090E0A0E8BFE36F
:1021F0008B879C87AD87BE876B857C858D859E850B
:1022000020E030E04AE755E40E941F02DC01CB01E8
:102210008F839887A987BA876F81788589859A8502
:1022200020E030E040E85FE30E94790388232CF44B
:1022300081E090E09E838D833FC06F8178858985A2
:102240009A8520E03FEF4FE757E40E9419031816E4
:102250004CF56B857C858D859E8520E030E040E2E5
:1022600051E40E941F02DC01CB01BC01CD010E94A0
:102270004900DC01CB019E838D830FC080E991E092
:102280009C838B838B819C810197F1F79C838B834B
:102290008D819E8101979E838D838D819E81009784
:1022A00069F714C06F81788589859A850E944900F5
:1022B000DC01CB019E838D838D819E819A838983EE
:1022C00089819A810197F1F79A83898386E160E099
:1022D0000E94320A8F8D98A1A9A1BAA10196A11DD1
:1022E000B11D8F8F98A3A9A3BAA38F8D98A1A9A17F
:1022F000BAA1843F21E0920720E0A20720E0B207C4
:1023000008F4E1CEA3960FB6F894DEBF0FBECDBFA2
:10231000CF91DF910895DF93CF9300D00F92CDB787
:10232000DEB789838981282F30E03B832A838A8125
:102330009B818130910571F02A813B8122303105EA
:1023400071F08A819B81009771F484E160E00E94C2
:102350001C0909C08EE260E00E941C0904C08AE2E8
:1023600060E00E941C090F900F900F90CF91DF91B9
:102370000895DF93CF93CDB7DEB7AE970FB6F8943D
:10238000DEBF0FBECDBF8CA71BA68CA5282F30E0CB
:102390003EA72DA78DA59EA58130910509F48CC07F
:1023A0002DA53EA52230310509F40CC18DA59EA5B1
:1023B000009709F08BC184E10E94EA0C813009F09A
:1023C00085C180E090E0A2E0B3E48FA398A7A9A71D
:1023D000BAA76FA178A589A59AA520E030E04AE7C1
:1023E00055E40E941F02DC01CB018BA39CA3ADA38B
:1023F000BEA36BA17CA18DA19EA120E030E040E8AE
:102400005FE30E94790388232CF481E090E09AA393
:1024100089A33FC06BA17CA18DA19EA120E03FEFCD
:102420004FE757E40E94190318164CF56FA178A5E1
:1024300089A59AA520E030E040E251E40E941F0205
:10244000DC01CB01BC01CD010E944900DC01CB01C4
:102450009AA389A30FC080E991E098A38F8F8F8DF5
:1024600098A10197F1F798A38F8F89A19AA101975D
:102470009AA389A389A19AA1009769F714C06BA1B7
:102480007CA18DA19EA10E944900DC01CB019AA3F1
:1024900089A389A19AA19E8F8D8F8D8D9E8D019785
:1024A000F1F79E8F8D8F84E10E94EA0C813009F054
:1024B0000DC181E08BA70AC18EE20E94EA0C813037
:1024C00009F004C180E090E0A2E0B3E4898F9A8F24
:1024D000AB8FBC8F698D7A8D8B8D9C8D20E030E029
:1024E0004AE755E40E941F02DC01CB018D8B9E8BD5
:1024F000AF8BB88F6D897E898F89988D20E030E011
:1025000040E85FE30E94790388232CF481E090E0A7
:102510009C8B8B8B3FC06D897E898F89988D20E045
:102520003FEF4FE757E40E94190318164CF5698DE9
:102530007A8D8B8D9C8D20E030E040E251E40E944A
:102540001F02DC01CB01BC01CD010E944900DC016E
:10255000CB019C8B8B8B0FC080E991E09A8B898B90
:1025600089899A890197F1F79A8B898B8B899C8944
:1025700001979C8B8B8B8B899C89009769F714C082
:102580006D897E898F89988D0E944900DC01CB017D
:102590009C8B8B8B8B899C89988B8F878F85988957
:1025A0000197F1F7988B8F878EE20E94EA0C8130B9
:1025B00009F08CC08EE20E94EA0C8130D9F381E0F0
:1025C0008BA784C08AE20E94EA0C813009F07EC0A9
:1025D00080E090E0A2E0B3E48B879C87AD87BE8764
:1025E0006B857C858D859E8520E030E04AE755E44B
:1025F0000E941F02DC01CB018F839887A987BA87CD
:102600006F81788589859A8520E030E040E85FE336
:102610000E94790388232CF481E090E09E838D83CF
:102620003FC06F81788589859A8520E03FEF4FE72D
:1026300057E40E94190318164CF56B857C858D852F
:102640009E8520E030E040E251E40E941F02DC0160
:10265000CB01BC01CD010E944900DC01CB019E836E
:102660008D830FC080E991E09C838B838B819C815B
:102670000197F1F79C838B838D819E8101979E83C7
:102680008D838D819E81009769F714C06F81788555
:1026900089859A850E944900DC01CB019E838D8348
:1026A0008D819E819A83898389819A810197F1F72F
:1026B0009A8389838AE20E94EA0C813039F48AE2A3
:1026C0000E94EA0C8130D9F381E08BA78BA5AE96EE
:1026D0000FB6F894DEBF0FBECDBFCF91DF91089546
:1026E000DF93CF93CDB7DEB70E94710DCF91DF910D
:1026F0000895DF93CF9300D000D0CDB7DEB781E04F
:102700000E94B00D9C838B838B819C81CC01A0E0C7
:10271000B0E024EF31E040E050E0BC01CD010E9488
:102720003924DC01CB012FEF33E040E050E0BC0165
:10273000CD010E946424DA01C9019A8389838981C9
:102740009A810F900F900F900F90CF91DF91089585
:10275000DF93CF9300D00F92CDB7DEB78983898105
:10276000282F30E03B832A838A819B818130910529
:1027700071F02A813B812230310571F08A819B8181
:10278000009771F480E261E00E94320A09C085E29C
:1027900061E00E94320A04C08BE261E00E94320ACA
:1027A0000F900F900F90CF91DF910895DF93CF930B
:1027B00000D00F92CDB7DEB789838981282F30E012
:1027C0003B832A838A819B818130910571F02A8124
:1027D0003B812230310571F08A819B81009771F431
:1027E00080E261E00E94320A09C085E261E00E9455
:1027F000320A04C08BE261E00E94320A0F900F900F
:102800000F90CF91DF910895DF93CF9300D00F9277
:10281000CDB7DEB789838981282F30E03B832A83B7
:102820008A819B818130910571F02A813B81223020
:10283000310571F08A819B81009771F480E260E03C
:102840000E94320A09C085E260E00E94320A04C098
:102850008BE260E00E94320A0F900F900F90CF91B0
:10286000DF910895DF93CF9300D00F92CDB7DEB7FD
:1028700089838981282F30E03B832A838A819B8149
:102880008130910569F02A813B812230310561F068
:102890008A819B81009759F480E20E945E0C07C0F8
:1028A00085E20E945E0C03C08BE20E945E0C0F90DA
:1028B0000F900F90CF91DF910895DF93CF93CDB715
:1028C000DEB78EE061E00E941C098FE061E00E94AB
:1028D0001C0980E161E00E941C0981E161E00E9425
:1028E0001C0985E161E00E941C0987E161E00E940A
:1028F0001C0986E161E00E941C0986E160E00E94FB
:10290000320A83E30E94B71682E30E94B71688E278
:102910000E94B7168CE00E94B71681E00E94B7169D
:1029200082E00E94B716CF91DF910895DF93CF9395
:10293000CDB7DEB7E9970FB6F894DEBF0FBECDBFB7
:1029400089AF85E161E00E94320A89AD82958F707E
:102950000E945A1987E161E00E94320A80E090E00B
:10296000A0E8BFE38DAB9EABAFABB8AF6DA97EA9BE
:102970008FA998AD20E030E04AE755E40E941F029D
:10298000DC01CB0189AB9AABABABBCAB69A97AA933
:102990008BA99CA920E030E040E85FE30E94790326
:1029A00088232CF481E090E098AB8FA73FC069A901
:1029B0007AA98BA99CA920E03FEF4FE757E40E943A
:1029C000190318164CF56DA97EA98FA998AD20E0C2
:1029D00030E040E251E40E941F02DC01CB01BC0167
:1029E000CD010E944900DC01CB0198AB8FA70FC03D
:1029F00080E991E09EA78DA78DA59EA50197F1F78F
:102A00009EA78DA78FA598A9019798AB8FA78FA593
:102A100098A9009769F714C069A97AA98BA99CA9FC
:102A20000E944900DC01CB0198AB8FA78FA598A924
:102A30009CA78BA78BA59CA50197F1F79CA78BA7BB
:102A400087E160E00E94320A80E090E0A0E8BFE306
:102A50008FA398A7A9A7BAA76FA178A589A59AA5BA
:102A600020E030E04AE755E40E941F02DC01CB0180
:102A70008BA39CA3ADA3BEA36BA17CA18DA19EA1A2
:102A800020E030E040E85FE30E94790388232CF4E3
:102A900081E090E09AA389A33FC06BA17CA18DA1A6
:102AA0009EA120E03FEF4FE757E40E94190318165C
:102AB0004CF56FA178A589A59AA520E030E040E209
:102AC00051E40E941F02DC01CB01BC01CD010E9438
:102AD0004900DC01CB019AA389A30FC080E991E0F2
:102AE00098A38F8F8F8D98A10197F1F798A38F8F5F
:102AF00089A19AA101979AA389A389A19AA1009774
:102B000069F714C06BA17CA18DA19EA10E94490010
:102B1000DC01CB019AA389A389A19AA19E8F8D8FF5
:102B20008D8D9E8D0197F1F79E8F8D8F89AD0E94BF
:102B30005A1987E161E00E94320A80E090E0A0E843
:102B4000BFE3898F9A8FAB8FBC8F698D7A8D8B8D08
:102B50009C8D20E030E04AE755E40E941F02DC0132
:102B6000CB018D8B9E8BAF8BB88F6D897E898F89C2
:102B7000988D20E030E040E85FE30E9479038823ED
:102B80002CF481E090E09C8B8B8B3FC06D897E891B
:102B90008F89988D20E03FEF4FE757E40E9419039B
:102BA00018164CF5698D7A8D8B8D9C8D20E030E068
:102BB00040E251E40E941F02DC01CB01BC01CD01C7
:102BC0000E944900DC01CB019C8B8B8B0FC080E9FC
:102BD00091E09A8B898B89899A890197F1F79A8B71
:102BE000898B8B899C8901979C8B8B8B8B899C898A
:102BF000009769F714C06D897E898F89988D0E942E
:102C00004900DC01CB019C8B8B8B8B899C89988B39
:102C10008F878F8598890197F1F7988B8F8787E148
:102C200060E00E94320A80E090E0A0E8BFE38B877A
:102C30009C87AD87BE876B857C858D859E8520E0D2
:102C400030E04AE755E40E941F02DC01CB018F838C
:102C50009887A987BA876F81788589859A8520E0CA
:102C600030E040E85FE30E94790388232CF481E0A0
:102C700090E09E838D833FC06F81788589859A859A
:102C800020E03FEF4FE757E40E94190318164CF578
:102C90006B857C858D859E8520E030E040E251E4A7
:102CA0000E941F02DC01CB01BC01CD010E94490042
:102CB000DC01CB019E838D830FC080E991E09C8372
:102CC0008B838B819C810197F1F79C838B838D8112
:102CD0009E8101979E838D838D819E81009769F7E8
:102CE00014C06F81788589859A850E944900DC012E
:102CF000CB019E838D838D819E819A838983898177
:102D00009A810197F1F79A838983E9960FB6F8942F
:102D1000DEBF0FBECDBFCF91DF910895DF93CF937C
:102D200000D00F92CDB7DEB79B838A8319820EC085
:102D30008981282F30E08A819B81FC01E20FF31FFB
:102D400080810E94961489818F5F89838981282FD1
:102D500030E08A819B81FC01E20FF31F8081882390
:102D600039F70F900F900F90CF91DF910895DF9377
:102D7000CF93CDB7DEB7E9970FB6F894DEBF0FBE9D
:102D8000CDBF89AF85E160E00E94320A89AD8295AE
:102D90008F700E945A1987E161E00E94320A80E038
:102DA00090E0A0E8BFE38DAB9EABAFABB8AF6DA931
:102DB0007EA98FA998AD20E030E04AE755E40E9453
:102DC0001F02DC01CB0189AB9AABABABBCAB69A9F1
:102DD0007AA98BA99CA920E030E040E85FE30E943B
:102DE000790388232CF481E090E098AB8FA73FC053
:102DF00069A97AA98BA99CA920E03FEF4FE757E486
:102E00000E94190318164CF56DA97EA98FA998ADDB
:102E100020E030E040E251E40E941F02DC01CB01DF
:102E2000BC01CD010E944900DC01CB0198AB8FA70A
:102E30000FC080E991E09EA78DA78DA59EA5019763
:102E4000F1F79EA78DA78FA598A9019798AB8FA79B
:102E50008FA598A9009769F714C069A97AA98BA9C9
:102E60009CA90E944900DC01CB0198AB8FA78FA5DC
:102E700098A99CA78BA78BA59CA50197F1F79CA768
:102E80008BA787E160E00E94320A80E090E0A0E832
:102E9000BFE38FA398A7A9A7BAA76FA178A589A513
:102EA0009AA520E030E04AE755E40E941F02DC01C9
:102EB000CB018BA39CA3ADA3BEA36BA17CA18DA1D1
:102EC0009EA120E030E040E85FE30E947903882380
:102ED0002CF481E090E09AA389A33FC06BA17CA170
:102EE0008DA19EA120E03FEF4FE757E40E94190318
:102EF00018164CF56FA178A589A59AA520E030E0B9
:102F000040E251E40E941F02DC01CB01BC01CD0173
:102F10000E944900DC01CB019AA389A30FC080E97C
:102F200091E098A38F8F8F8D98A10197F1F798A3C7
:102F30008F8F89A19AA101979AA389A389A19AA1A8
:102F4000009769F714C06BA17CA18DA19EA10E947E
:102F50004900DC01CB019AA389A389A19AA19E8F84
:102F60008D8F8D8D9E8D0197F1F79E8F8D8F89AD01
:102F70000E945A1987E161E00E94320A80E090E0E5
:102F8000A0E8BFE3898F9A8FAB8FBC8F698D7A8D54
:102F90008B8D9C8D20E030E04AE755E40E941F02B3
:102FA000DC01CB018D8B9E8BAF8BB88F6D897E89B9
:102FB0008F89988D20E030E040E85FE30E9479033C
:102FC00088232CF481E090E09C8B8B8B3FC06D8933
:102FD0007E898F89988D20E03FEF4FE757E40E946C
:102FE000190318164CF5698D7A8D8B8D9C8D20E018
:102FF00030E040E251E40E941F02DC01CB01BC0141
:10300000CD010E944900DC01CB019C8B8B8B0FC052
:1030100080E991E09A8B898B89899A890197F1F7E8
:103020009A8B898B8B899C8901979C8B8B8B8B8945
:103030009C89009769F714C06D897E898F89988D66
:103040000E944900DC01CB019C8B8B8B8B899C8976
:10305000988B8F878F8598890197F1F7988B8F8749
:1030600087E160E00E94320A80E090E0A0E8BFE3E0
:103070008B879C87AD87BE876B857C858D859E857C
:1030800020E030E04AE755E40E941F02DC01CB015A
:103090008F839887A987BA876F81788589859A8574
:1030A00020E030E040E85FE30E94790388232CF4BD
:1030B00081E090E09E838D833FC06F817885898514
:1030C0009A8520E03FEF4FE757E40E941903181656
:1030D0004CF56B857C858D859E8520E030E040E257
:1030E00051E40E941F02DC01CB01BC01CD010E9412
:1030F0004900DC01CB019E838D830FC080E991E004
:103100009C838B838B819C810197F1F79C838B83BC
:103110008D819E8101979E838D838D819E810097F5
:1031200069F714C06F81788589859A850E94490066
:10313000DC01CB019E838D838D819E819A8389835F
:1031400089819A810197F1F79A838983E9960FB66D
:10315000F894DEBF0FBECDBFCF91DF9108950F93DE
:103160001F93DF93CF93CDB7DEB765970FB6F89473
:10317000DEBF0FBECDBF6A8B7B8B8C8B9D8B8FEFA1
:1031800089838A899B89AC89BD89BB2394F48A8908
:103190009B89AC89BD89B095A095909581959F4FED
:1031A000AF4FBF4F8A8B9B8BAC8BBD8B8DE20E9448
:1031B000961489818F5F89838981082F112707FDE4
:1031C00010958A899B89AC89BD892AE030E040E06E
:1031D00050E0BC01CD010E948624DC01CB01282FE8
:1031E000CE010296FC01E00FF11F20838A899B89A2
:1031F000AC89BD892AE030E040E050E0BC01CD015F
:103200000E948624DA01C9018A8B9B8BAC8BBD8B13
:103210008A899B89AC89BD890097A105B10549F6CA
:1032200011C08981282F332727FD3095CE010296C2
:10323000FC01E20FF31F8081805D0E94961489815A
:10324000815089838981882364F765960FB6F89445
:10325000DEBF0FBECDBFCF91DF911F910F910895BB
:10326000DF93CF9300D000D0CDB7DEB78B836C83D4
:1032700088E0898380EC8A838B81282F30E0CE011F
:103280000196FC01E20FF31F90818C81890F0E944F
:10329000B7160F900F900F900F90CF91DF91089578
:1032A000DF93CF93CDB7DEB781E00E94B716CF9101
:1032B000DF910895DF93CF930F92CDB7DEB7898367
:1032C0008981982F91708EE0692F0E94320A89813E
:1032D0008695982F91708FE0692F0E94320A89811C
:1032E00086958695982F917080E1692F0E94320A09
:1032F0008981869586958695982F917081E1692FB1
:103300000E94320A0F90CF91DF910895DF93CF93FF
:10331000CDB7DEB781E261E00E941C0982E261E084
:103320000E941C0983E261E00E941C0984E261E0C2
:103330000E941C0981E261E00E94320A82E261E09F
:103340000E94320A83E261E00E94320A84E261E074
:103350000E94320A88E160E00E941C0989E160E075
:103360000E941C098AE160E00E941C098BE160E078
:103370000E941C0988E161E00E94480B89E161E03C
:103380000E94480B8AE161E00E94480B8BE161E0FA
:103390000E94480BCF91DF910895DF93CF93CDB773
:1033A000DEB7A6970FB6F894DEBF0FBECDBFCE0135
:1033B00042969BA38AA3E5E7F0E0FDA3ECA3F0E12E
:1033C000FEA3ECA1FDA100808CA19DA101969DA36F
:1033D0008CA3EAA1FBA100828AA19BA101969BA3D9
:1033E0008AA39EA191509EA3EEA1EE2351F7198AC4
:1033F000188A1F8681E28F87B2C08F8560E00E94A5
:10340000320A88E1888BA0C088890E94EA0C882350
:1034100009F097C080E090E0A0EFB2E48B879C8732
:10342000AD87BE876B857C858D859E8520E030E0ED
:103430004AE755E40E941F02DC01CB018F83988785
:10344000A987BA876F81788589859A8520E030E0E1
:1034500040E85FE30E94790388232CF481E090E048
:103460009E838D833FC06F81788589859A8520E012
:103470003FEF4FE757E40E94190318164CF56B8590
:103480007C858D859E8520E030E040E251E40E94FD
:103490001F02DC01CB01BC01CD010E944900DC010F
:1034A000CB019E838D830FC080E991E09C838B8349
:1034B0008B819C810197F1F79C838B838D819E8109
:1034C00001979E838D838D819E81009769F714C03B
:1034D0006F81788589859A850E944900DC01CB013E
:1034E0009E838D838D819E819A83898389819A8130
:1034F0000197F1F79A83898388890E94EA0C8823CF
:1035000001F588890E94EA0C8823D9F38F85882FDA
:1035100090E09C01215230408889882F90E0AC01D6
:1035200048515040220F331F220F331FCE01019606
:10353000820F931F840F951FFC0171968081898BE8
:1035400007C088898F5F888B88898C3108F45CCFAD
:103550008F8561E00E94320A8F858F5F8F878F850C
:10356000853208F44ACF8989A6960FB6F894DEBF53
:103570000FBECDBFCF91DF910895DF93CF93CDB72D
:10358000DEB70E94A305CF91DF910895DF93CF931B
:103590000F92CDB7DEB7898389810E94E5050F9030
:1035A000CF91DF910895DF93CF93CDB7DEB70E941F
:1035B0001D06CF91DF910895DF93CF93CDB7DEB78E
:1035C0008DE061E00E941C09CF91DF910895DF93A7
:1035D000CF93CDB7DEB78DE061E00E94320ACF9184
:1035E000DF910895DF93CF93CDB7DEB78DE060E034
:1035F0000E94320ACF91DF910895DF93CF93CDB728
:10360000DEB72E970FB6F894DEBF0FBECDBF8DE0AC
:1036100061E00E94320A80E090E0A0E7B2E48B878C
:103620009C87AD87BE876B857C858D859E8520E0D8
:1036300030E04AE755E40E941F02DC01CB018F8392
:103640009887A987BA876F81788589859A8520E0D0
:1036500030E040E85FE30E94790388232CF481E0A6
:1036600090E09E838D833FC06F81788589859A85A0
:1036700020E03FEF4FE757E40E94190318164CF57E
:103680006B857C858D859E8520E030E040E251E4AD
:103690000E941F02DC01CB01BC01CD010E94490048
:1036A000DC01CB019E838D830FC080E991E09C8378
:1036B0008B838B819C810197F1F79C838B838D8118
:1036C0009E8101979E838D838D819E81009769F7EE
:1036D00014C06F81788589859A850E944900DC0134
:1036E000CB019E838D838D819E819A83898389817D
:1036F0009A810197F1F79A8389838DE060E00E94B7
:10370000320A2E960FB6F894DEBF0FBECDBFCF9112
:10371000DF910895DF93CF93CDB7DEB70E94E00726
:10372000CF91DF910895DF93CF9300D00F92CDB763
:10373000DEB789836A834B830E94F20789818065A3
:103740000E9448088A810E9496088B810E949608F0
:103750000E9416080F900F900F90CF91DF9108955F
:10376000DF93CF9300D00F92CDB7DEB78A836B8300
:1037700019820E94F2078A8180650E9448088B8125
:103780000E9496080E9424088A8180650E94480849
:103790000E94BA0889830E94160889810F900F90B1
:1037A0000F90CF91DF910895DF93CF93CDB7DEB720
:1037B0002E970FB6F894DEBF0FBECDBF82E00E94F9
:1037C000A81382E00E94D61380E090E0AAEFB4E450
:1037D0008B879C87AD87BE876B857C858D859E8515
:1037E00020E030E04AE755E40E941F02DC01CB01F3
:1037F0008F839887A987BA876F81788589859A850D
:1038000020E030E040E85FE30E94790388232CF455
:1038100081E090E09E838D833FC06F8178858985AC
:103820009A8520E03FEF4FE757E40E9419031816EE
:103830004CF56B857C858D859E8520E030E040E2EF
:1038400051E40E941F02DC01CB01BC01CD010E94AA
:103850004900DC01CB019E838D830FC080E991E09C
:103860009C838B838B819C810197F1F79C838B8355
:103870008D819E8101979E838D838D819E8100978E
:1038800069F714C06F81788589859A850E944900FF
:10389000DC01CB019E838D838D819E819A838983F8
:1038A00089819A810197F1F79A83898382E00E9446
:1038B00004142E960FB6F894DEBF0FBECDBFCF9185
:1038C000DF910895DF93CF93CDB7DEB72E970FB674
:1038D000F894DEBF0FBECDBF0E94DC1A0E94E71A2B
:1038E00080E090E0AAE7B4E48B879C87AD87BE8731
:1038F0006B857C858D859E8520E030E04AE755E428
:103900000E941F02DC01CB018F839887A987BA87A9
:103910006F81788589859A8520E030E040E85FE313
:103920000E94790388232CF481E090E09E838D83AC
:103930003FC06F81788589859A8520E03FEF4FE70A
:1039400057E40E94190318164CF56B857C858D850C
:103950009E8520E030E040E251E40E941F02DC013D
:10396000CB01BC01CD010E944900DC01CB019E834B
:103970008D830FC080E991E09C838B838B819C8138
:103980000197F1F79C838B838D819E8101979E83A4
:103990008D838D819E81009769F714C06F81788532
:1039A00089859A850E944900DC01CB019E838D8325
:1039B0008D819E819A83898389819A810197F1F70C
:1039C0009A8389830E94F21A2E960FB6F894DEBF6E
:1039D0000FBECDBFCF91DF910895DF93CF93CDB7C9
:1039E000DEB780E00E948B110E94DC1A02C00E94A8
:1039F000E71A80E00E94B9118130C9F30E94F21ADF
:103A0000F8CFDF93CF93CDB7DEB760970FB6F894BA
:103A1000DEBF0FBECDBF0E942C0F188A1F868F8578
:103A20000E94531080E090E0AAE7B4E48B879C8763
:103A3000AD87BE876B857C858D859E8520E030E0D7
:103A40004AE755E40E941F02DC01CB018F8398876F
:103A5000A987BA876F81788589859A8520E030E0CB
:103A600040E85FE30E94790388232CF481E090E032
:103A70009E838D833FC06F81788589859A8520E0FC
:103A80003FEF4FE757E40E94190318164CF56B857A
:103A90007C858D859E8520E030E040E251E40E94E7
:103AA0001F02DC01CB01BC01CD010E944900DC01F9
:103AB000CB019E838D830FC080E991E09C838B8333
:103AC0008B819C810197F1F79C838B838D819E81F3
:103AD00001979E838D838D819E81009769F714C025
:103AE0006F81788589859A850E944900DC01CB0128
:103AF0009E838D838D819E819A83898389819A811A
:103B00000197F1F79A8389838F8598890196988B1D
:103B10008F8785CFDF93CF93CDB7DEB760970FB692
:103B2000F894DEBF0FBECDBF0E945D14188A1F86B9
:103B3000188A83C00E9450191F8606C080E20E9426
:103B400096148F858F5F8F879F8588899817B0F32C
:103B500080E090E0AAEFB3E48B879C87AD87BE87B7
:103B60006B857C858D859E8520E030E04AE755E4B5
:103B70000E941F02DC01CB018F839887A987BA8737
:103B80006F81788589859A8520E030E040E85FE3A1
:103B90000E94790388232CF481E090E09E838D833A
:103BA0003FC06F81788589859A8520E03FEF4FE798
:103BB00057E40E94190318164CF56B857C858D859A
:103BC0009E8520E030E040E251E40E941F02DC01CB
:103BD000CB01BC01CD010E944900DC01CB019E83D9
:103BE0008D830FC080E991E09C838B838B819C81C6
:103BF0000197F1F79C838B838D819E8101979E8332
:103C00008D838D819E81009769F714C06F817885BF
:103C100089859A850E944900DC01CB019E838D83B2
:103C20008D819E819A83898389819A810197F1F799
:103C30009A83898388898F5F888B8889803108F48B
:103C400079CF74CFDF93CF93CDB7DEB7CF91DF912C
:103C50000895DF93CF9300D0CDB7DEB70E945D14F7
:103C60000E9486191A8219820E94CD19882F90E02D
:103C70009A83898389819A810097B1F389810E940F
:103C80009614F2CFDF93CF93CDB7DEB72E970FB652
:103C9000F894DEBF0FBECDBF0E945D140E9470136A
:103CA0000E947913CC01A0E0B0E0BC01CD010E94DC
:103CB000AF1880E090E0AAEFB3E48B879C87AD87D4
:103CC000BE876B857C858D859E8520E030E04AE748
:103CD00055E40E941F02DC01CB018F839887A987DE
:103CE000BA876F81788589859A8520E030E040E841
:103CF0005FE30E94790388232CF481E090E09E83A7
:103D00008D833FC06F81788589859A8520E03FEF5C
:103D10004FE757E40E94190318164CF56B857C8514
:103D20008D859E8520E030E040E251E40E941F0234
:103D3000DC01CB01BC01CD010E944900DC01CB01BB
:103D40009E838D830FC080E991E09C838B838B8160
:103D50009C810197F1F79C838B838D819E810197D4
:103D60009E838D838D819E81009769F714C06F813A
:103D7000788589859A850E944900DC01CB019E8364
:103D80008D838D819E819A83898389819A81019710
:103D9000F1F79A8389830E94501982CFDF93CF93E2
:103DA000CDB7DEB782E00E94A8130E94510668ECEE
:103DB00070E080E090E00E948906CF91DF91089545
:103DC0000F931F93DF93CF93CDB7DEB7C956D04083
:103DD0000FB6F894DEBF0FBECDBF0E945D1480E029
:103DE0000E94A81381E00E94A81382E00E94A813F9
:103DF00080E00E94041481E00E94041482E00E948A
:103E000004140E94DC1A0E94A305FE01E759FF4F2B
:103E100010820E94D31AFE01E759FF4F8083FE01F2
:103E2000E759FF4F80818823A1F3FE01E759FF4F37
:103E30008081813309F0B9C080E00E94D613FE0171
:103E4000E15AFF4F80E090E0AAEFB3E480839183D2
:103E5000A283B3838E01055A1F4FFE01E15AFF4F23
:103E6000608171818281938120E030E04AE755E4EE
:103E70000E941F02DC01CB01F80180839183A283A1
:103E8000B383FE01E55AFF4F608171818281938186
:103E900020E030E040E85FE30E947903882344F4A7
:103EA000FE01E75AFF4F81E090E09183808364C078
:103EB000FE01E55AFF4F608171818281938120E08C
:103EC0003FEF4FE757E40E94190318160CF043C068
:103ED000FE01E15AFF4F608171818281938120E070
:103EE00030E040E251E40E941F02DC01CB018E0170
:103EF000075A1F4FBC01CD010E944900DC01CB01D4
:103F0000F801918380831FC0FE01E95AFF4F80E9C9
:103F100091E091838083FE01E95AFF4F8081918176
:103F20000197F1F7FE01E95AFF4F91838083DE018B
:103F3000A75ABF4FFE01E75AFF4F80819181019739
:103F400011969C938E93FE01E75AFF4F80819181D9
:103F50000097D1F627C08E01075A1F4FFE01E55A80
:103F6000FF4F60817181828193810E944900DC0151
:103F7000CB01F80191838083DE01AB5ABF4FFE0174
:103F8000E75AFF4F808191818D939C93FE01EB5AFC
:103F9000FF4F808191810197F1F7FE01EB5AFF4FAE
:103FA0009183808380E00E940414FE01E759FF4F53
:103FB0008081823309F0B9C081E00E94D613FE01EE
:103FC000EF5AFF4F80E090E0AAEFB3E48083918343
:103FD000A283B3838E01035B1F4FFE01EF5AFF4F95
:103FE000608171818281938120E030E04AE755E46D
:103FF0000E941F02DC01CB01F80180839183A28320
:10400000B383FE01E35BFF4F608171818281938105
:1040100020E030E040E85FE30E947903882344F425
:10402000FE01E55BFF4F81E090E09183808364C0F7
:10403000FE01E35BFF4F608171818281938120E00B
:104040003FEF4FE757E40E94190318160CF043C0E6
:10405000FE01EF5AFF4F608171818281938120E0E0
:1040600030E040E251E40E941F02DC01CB018E01EE
:10407000055B1F4FBC01CD010E944900DC01CB0153
:10408000F801918380831FC0FE01E75BFF4F80E949
:1040900091E091838083FE01E75BFF4F80819181F6
:1040A0000197F1F7FE01E75BFF4F91838083DE010B
:1040B000A55BBF4FFE01E55BFF4F808191810197BA
:1040C00011969C938E93FE01E55BFF4F8081918159
:1040D0000097D1F627C08E01055B1F4FFE01E35B01
:1040E000FF4F60817181828193810E944900DC01D0
:1040F000CB01F80191838083DE01A95BBF4FFE01F4
:10410000E55BFF4F808191818D939C93FE01E95B7C
:10411000FF4F808191810197F1F7FE01E95BFF4F2D
:104120009183808381E00E940414FE01E759FF4FD0
:104130008081833309F08BC082E00E94D613FE0198
:10414000ED5BFF4F80E090E0AAEFB3E480839183C2
:10415000A283B3838E01015C1F4FFE01ED5BFF4F15
:10416000608171818281938120E030E04AE755E4EB
:104170000E941F02DC01CB01F80180839183A2839E
:10418000B383FE01FF96608171818281938120E07B
:1041900030E040E85FE30E94790388232CF481E05B
:1041A00090E09EAF8DAF46C0FE01FF9660817181A9
:1041B0008281938120E03FEF4FE757E40E9419038B
:1041C000181664F5FE01ED5BFF4F608171818281FD
:1041D000938120E030E040E251E40E941F02DC01C4
:1041E000CB01BC01CD010E944900DC01CB019EAF97
:1041F0008DAF0FC080E991E09CAF8BAF8BAD9CADD4
:104200000197F1F79CAF8BAF8DAD9EAD01979EAF3F
:104210008DAF8DAD9EAD009769F716C0FE01FF967C
:1042200060817181828193810E944900DC01CB0110
:104230009EAF8DAF8DAD9EAD9AAF89AF89AD9AAD72
:104240000197F1F79AAF89AF82E00E940414FE0152
:10425000E759FF4F8081843311F40E94FD1AFE015B
:10426000E759FF4F8081853321F480E690E00E947A
:104270008E16FE01E759FF4F8081863321F483E6D5
:1042800090E00E948E16FE01E759FF4F8081873330
:1042900011F40E945019FE01E759FF4F80818833C5
:1042A00009F07AC1FE01E959FF4F118210826BC1FA
:1042B00080E00E94321480E090E0A8E4B3E48DAB8B
:1042C0009EABAFABB8AF6DA97EA98FA998AD20E02A
:1042D00030E04AE755E40E941F02DC01CB0189ABC4
:1042E0009AABABABBCAB69A97AA98BA99CA920E01E
:1042F00030E040E85FE30E94790388232CF481E0FA
:1043000090E098AB8FA73FC069A97AA98BA99CA917
:1043100020E03FEF4FE757E40E94190318164CF5D1
:104320006DA97EA98FA998AD20E030E040E251E46C
:104330000E941F02DC01CB01BC01CD010E9449009B
:10434000DC01CB0198AB8FA70FC080E991E09EA75D
:104350008DA78DA59EA50197F1F79EA78DA78FA587
:1043600098A9019798AB8FA78FA598A9009769F78F
:1043700014C069A97AA98BA99CA90E944900DC01F3
:10438000CB0198AB8FA78FA598A99CA78BA78BA5CE
:104390009CA50197F1F79CA78BA781E00E9432149E
:1043A00080E090E0A8E4B3E48FA398A7A9A7BAA7F8
:1043B0006FA178A589A59AA520E030E04AE755E4E9
:1043C0000E941F02DC01CB018BA39CA3ADA3BEA363
:1043D0006BA17CA18DA19EA120E030E040E85FE3CD
:1043E0000E94790388232CF481E090E09AA389A3AA
:1043F0003FC06BA17CA18DA19EA120E03FEF4FE7C4
:1044000057E40E94190318164CF56FA178A589A5E9
:104410009AA520E030E040E251E40E941F02DC0156
:10442000CB01BC01CD010E944900DC01CB019AA364
:1044300089A30FC080E991E098A38F8F8F8D98A1F9
:104440000197F1F798A38F8F89A19AA101979AA359
:1044500089A389A19AA1009769F714C06BA17CA1D7
:104460008DA19EA10E944900DC01CB019AA389A3E2
:1044700089A19AA19E8F8D8F8D8D9E8D0197F1F7C9
:104480009E8F8D8F82E00E94321480E090E0A8E43D
:10449000B3E4898F9A8FAB8FBC8F698D7A8D8B8DAA
:1044A0009C8D20E030E04AE755E40E941F02DC01C9
:1044B000CB018D8B9E8BAF8BB88F6D897E898F8959
:1044C000988D20E030E040E85FE30E947903882384
:1044D0002CF481E090E09C8B8B8B3FC06D897E89B2
:1044E0008F89988D20E03FEF4FE757E40E94190332
:1044F00018164CF5698D7A8D8B8D9C8D20E030E0FF
:1045000040E251E40E941F02DC01CB01BC01CD015D
:104510000E944900DC01CB019C8B8B8B0FC080E992
:1045200091E09A8B898B89899A890197F1F79A8B07
:10453000898B8B899C8901979C8B8B8B8B899C8920
:10454000009769F714C06D897E898F89988D0E94C4
:104550004900DC01CB019C8B8B8B8B899C89988BD0
:104560008F878F8598890197F1F7988B8F87DE0168
:10457000A959BF4FFE01E959FF4F808191810196F2
:1045800011969C938E93FE01E959FF4F8081918192
:10459000843191050CF48CCEFE01E759FF4F8081E8
:1045A000893309F036CCFE01EB59FF4F118210829E
:1045B000BCC0FE01EC59FF4F1082FE01ED59FF4FC8
:1045C0001082FE01EC59FF4F10829CC00E945019CE
:1045D000FE01ED59FF4F10820CC080E20E9496143C
:1045E000DE01AD59BF4FFE01ED59FF4F80818F5F56
:1045F0008C93FE01ED59FF4FDE01AC59BF4F908106
:104600008C91981750F387E690E00E948E1680E018
:1046100090E0AAEFB3E48B879C87AD87BE876B855C
:104620007C858D859E8520E030E04AE755E40E9438
:104630001F02DC01CB018F839887A987BA876F811E
:10464000788589859A8520E030E040E85FE30E9424
:10465000790388232CF481E090E09E838D833FC012
:104660006F81788589859A8520E03FEF4FE757E491
:104670000E94190318164CF56B857C858D859E85E7
:1046800020E030E040E251E40E941F02DC01CB0157
:10469000BC01CD010E944900DC01CB019E838D83CA
:1046A0000FC080E991E09C838B838B819C81019773
:1046B000F1F79C838B838D819E8101979E838D83EF
:1046C0008D819E81009769F714C06F8178858985F7
:1046D0009A850E944900DC01CB019E838D838D81E8
:1046E0009E819A83898389819A810197F1F79A83C0
:1046F0008983DE01AC59BF4FFE01EC59FF4F808129
:104700008F5F8C93FE01EC59FF4F8081803108F45C
:104710005DCFDE01AB59BF4FFE01EB59FF4F8081EA
:104720009181019611969C938E93FE01EB59FF4F58
:1047300080819181823091050CF43BCF6ACBDF936D
:10474000CF93CDB7DEB72F970FB6F894DEBF0FBE6D
:10475000CDBF1F8681E061E00E94B01B8F870E9461
:104760005D140E948A1B81E061E04F850E94931BCB
:104770008F85882F90E0A0E0B0E0BC01CD010E94C1
:10478000AF1880E090E0AAEFB3E48B879C87AD87F9
:10479000BE876B857C858D859E8520E030E04AE76D
:1047A00055E40E941F02DC01CB018F839887A98703
:1047B000BA876F81788589859A8520E030E040E866
:1047C0005FE30E94790388232CF481E090E09E83CC
:1047D0008D833FC06F81788589859A8520E03FEF82
:1047E0004FE757E40E94190318164CF56B857C853A
:1047F0008D859E8520E030E040E251E40E941F025A
:10480000DC01CB01BC01CD010E944900DC01CB01E0
:104810009E838D830FC080E991E09C838B838B8185
:104820009C810197F1F79C838B838D819E810197F9
:104830009E838D838D819E81009769F714C06F815F
:10484000788589859A850E944900DC01CB019E8389
:104850008D838D819E819A83898389819A81019735
:10486000F1F79A8389838F858F5F8F870E94501914
:104870007ACF629FD001739FF001829FE00DF11DFE
:10488000649FE00DF11D929FF00D839FF00D749FCA
:10489000F00D659FF00D9927729FB00DE11DF91F76
:1048A000639FB00DE11DF91FBD01CF0111240895D3
:1048B000991B79E004C0991F961708F0961B881F72
:1048C0007A95C9F780950895A1E21A2EAA1BBB1B01
:1048D000FD010DC0AA1FBB1FEE1FFF1FA217B307CC
:1048E000E407F50720F0A21BB30BE40BF50B661FE2
:1048F000771F881F991F1A9469F7609570958095A6
:1049000090959B01AC01BD01CF01089597FB092E45
:1049100005260ED057FD04D0D7DF0AD0001C38F48E
:1049200050954095309521953F4F4F4F5F4F0895DB
:10493000F6F790958095709561957F4F8F4F9F4FBB
:1049400008952F923F924F925F926F927F928F9233
:104950009F92AF92BF92CF92DF92EF92FF920F930E
:104960001F93CF93DF93CDB7DEB7CA1BDB0B0FB618
:10497000F894DEBF0FBECDBF09942A8839884888D5
:104980005F846E847D848C849B84AA84B984C8846B
:10499000DF80EE80FD800C811B81AA81B981CE0F62
:1049A000D11D0FB6F894DEBF0FBECDBFED01089547
:0449B000F894FFCFA9
:1049B4004869004259450048454C4C4F00000000EE
:1049C4000000000000313233413435364237383983
:0649D400432A30234400D9
:00000001FF
